{
  "_format": "hh-sol-artifact-1",
  "contractName": "LouicePaymaster",
  "sourceName": "contracts/Paymaster.sol",
  "abi": [
    {
      "inputs": [
        {
          "internalType": "contract IEntryPoint",
          "name": "_entryPoint",
          "type": "address"
        },
        {
          "internalType": "address",
          "name": "_owner",
          "type": "address"
        }
      ],
      "stateMutability": "nonpayable",
      "type": "constructor"
    },
    {
      "anonymous": false,
      "inputs": [
        {
          "indexed": true,
          "internalType": "address",
          "name": "previousOwner",
          "type": "address"
        },
        {
          "indexed": true,
          "internalType": "address",
          "name": "newOwner",
          "type": "address"
        }
      ],
      "name": "OwnershipTransferred",
      "type": "event"
    },
    {
      "anonymous": false,
      "inputs": [
        {
          "indexed": true,
          "internalType": "address",
          "name": "sender",
          "type": "address"
        },
        {
          "indexed": true,
          "internalType": "address",
          "name": "token",
          "type": "address"
        },
        {
          "indexed": false,
          "internalType": "uint256",
          "name": "cost",
          "type": "uint256"
        }
      ],
      "name": "UserOperationSponsored",
      "type": "event"
    },
    {
      "inputs": [],
      "name": "COST_OF_POST",
      "outputs": [
        {
          "internalType": "uint256",
          "name": "",
          "type": "uint256"
        }
      ],
      "stateMutability": "view",
      "type": "function"
    },
    {
      "inputs": [
        {
          "internalType": "uint32",
          "name": "unstakeDelaySec",
          "type": "uint32"
        }
      ],
      "name": "addStake",
      "outputs": [],
      "stateMutability": "payable",
      "type": "function"
    },
    {
      "inputs": [
        {
          "internalType": "contract IERC20Metadata",
          "name": "token",
          "type": "address"
        }
      ],
      "name": "balanceOfToken",
      "outputs": [
        {
          "internalType": "uint256",
          "name": "",
          "type": "uint256"
        }
      ],
      "stateMutability": "view",
      "type": "function"
    },
    {
      "inputs": [],
      "name": "deposit",
      "outputs": [],
      "stateMutability": "payable",
      "type": "function"
    },
    {
      "inputs": [],
      "name": "entryPoint",
      "outputs": [
        {
          "internalType": "contract IEntryPoint",
          "name": "",
          "type": "address"
        }
      ],
      "stateMutability": "view",
      "type": "function"
    },
    {
      "inputs": [],
      "name": "getDeposit",
      "outputs": [
        {
          "internalType": "uint256",
          "name": "",
          "type": "uint256"
        }
      ],
      "stateMutability": "view",
      "type": "function"
    },
    {
      "inputs": [
        {
          "components": [
            {
              "internalType": "address",
              "name": "sender",
              "type": "address"
            },
            {
              "internalType": "uint256",
              "name": "nonce",
              "type": "uint256"
            },
            {
              "internalType": "bytes",
              "name": "initCode",
              "type": "bytes"
            },
            {
              "internalType": "bytes",
              "name": "callData",
              "type": "bytes"
            },
            {
              "internalType": "uint256",
              "name": "callGasLimit",
              "type": "uint256"
            },
            {
              "internalType": "uint256",
              "name": "verificationGasLimit",
              "type": "uint256"
            },
            {
              "internalType": "uint256",
              "name": "preVerificationGas",
              "type": "uint256"
            },
            {
              "internalType": "uint256",
              "name": "maxFeePerGas",
              "type": "uint256"
            },
            {
              "internalType": "uint256",
              "name": "maxPriorityFeePerGas",
              "type": "uint256"
            },
            {
              "internalType": "bytes",
              "name": "paymasterAndData",
              "type": "bytes"
            },
            {
              "internalType": "bytes",
              "name": "signature",
              "type": "bytes"
            }
          ],
          "internalType": "struct UserOperation",
          "name": "userOp",
          "type": "tuple"
        },
        {
          "components": [
            {
              "internalType": "contract IERC20Metadata",
              "name": "token",
              "type": "address"
            },
            {
              "internalType": "enum LouicePaymaster.SponsoringMode",
              "name": "mode",
              "type": "uint8"
            },
            {
              "internalType": "uint48",
              "name": "validUntil",
              "type": "uint48"
            },
            {
              "internalType": "uint256",
              "name": "fee",
              "type": "uint256"
            },
            {
              "internalType": "uint256",
              "name": "exchangeRate",
              "type": "uint256"
            },
            {
              "internalType": "bytes",
              "name": "signature",
              "type": "bytes"
            }
          ],
          "internalType": "struct LouicePaymaster.PaymasterData",
          "name": "paymasterData",
          "type": "tuple"
        }
      ],
      "name": "getHash",
      "outputs": [
        {
          "internalType": "bytes32",
          "name": "",
          "type": "bytes32"
        }
      ],
      "stateMutability": "view",
      "type": "function"
    },
    {
      "inputs": [],
      "name": "owner",
      "outputs": [
        {
          "internalType": "address",
          "name": "",
          "type": "address"
        }
      ],
      "stateMutability": "view",
      "type": "function"
    },
    {
      "inputs": [
        {
          "internalType": "bytes",
          "name": "paymasterAndData",
          "type": "bytes"
        }
      ],
      "name": "parsePaymasterAndData",
      "outputs": [
        {
          "components": [
            {
              "internalType": "contract IERC20Metadata",
              "name": "token",
              "type": "address"
            },
            {
              "internalType": "enum LouicePaymaster.SponsoringMode",
              "name": "mode",
              "type": "uint8"
            },
            {
              "internalType": "uint48",
              "name": "validUntil",
              "type": "uint48"
            },
            {
              "internalType": "uint256",
              "name": "fee",
              "type": "uint256"
            },
            {
              "internalType": "uint256",
              "name": "exchangeRate",
              "type": "uint256"
            },
            {
              "internalType": "bytes",
              "name": "signature",
              "type": "bytes"
            }
          ],
          "internalType": "struct LouicePaymaster.PaymasterData",
          "name": "",
          "type": "tuple"
        }
      ],
      "stateMutability": "pure",
      "type": "function"
    },
    {
      "inputs": [
        {
          "internalType": "enum IPaymaster.PostOpMode",
          "name": "mode",
          "type": "uint8"
        },
        {
          "internalType": "bytes",
          "name": "context",
          "type": "bytes"
        },
        {
          "internalType": "uint256",
          "name": "actualGasCost",
          "type": "uint256"
        }
      ],
      "name": "postOp",
      "outputs": [],
      "stateMutability": "nonpayable",
      "type": "function"
    },
    {
      "inputs": [],
      "name": "renounceOwnership",
      "outputs": [],
      "stateMutability": "nonpayable",
      "type": "function"
    },
    {
      "inputs": [
        {
          "internalType": "address",
          "name": "newOwner",
          "type": "address"
        }
      ],
      "name": "transferOwnership",
      "outputs": [],
      "stateMutability": "nonpayable",
      "type": "function"
    },
    {
      "inputs": [],
      "name": "unlockStake",
      "outputs": [],
      "stateMutability": "nonpayable",
      "type": "function"
    },
    {
      "inputs": [
        {
          "components": [
            {
              "internalType": "address",
              "name": "sender",
              "type": "address"
            },
            {
              "internalType": "uint256",
              "name": "nonce",
              "type": "uint256"
            },
            {
              "internalType": "bytes",
              "name": "initCode",
              "type": "bytes"
            },
            {
              "internalType": "bytes",
              "name": "callData",
              "type": "bytes"
            },
            {
              "internalType": "uint256",
              "name": "callGasLimit",
              "type": "uint256"
            },
            {
              "internalType": "uint256",
              "name": "verificationGasLimit",
              "type": "uint256"
            },
            {
              "internalType": "uint256",
              "name": "preVerificationGas",
              "type": "uint256"
            },
            {
              "internalType": "uint256",
              "name": "maxFeePerGas",
              "type": "uint256"
            },
            {
              "internalType": "uint256",
              "name": "maxPriorityFeePerGas",
              "type": "uint256"
            },
            {
              "internalType": "bytes",
              "name": "paymasterAndData",
              "type": "bytes"
            },
            {
              "internalType": "bytes",
              "name": "signature",
              "type": "bytes"
            }
          ],
          "internalType": "struct UserOperation",
          "name": "userOp",
          "type": "tuple"
        },
        {
          "internalType": "bytes32",
          "name": "userOpHash",
          "type": "bytes32"
        },
        {
          "internalType": "uint256",
          "name": "maxCost",
          "type": "uint256"
        }
      ],
      "name": "validatePaymasterUserOp",
      "outputs": [
        {
          "internalType": "bytes",
          "name": "context",
          "type": "bytes"
        },
        {
          "internalType": "uint256",
          "name": "validationData",
          "type": "uint256"
        }
      ],
      "stateMutability": "nonpayable",
      "type": "function"
    },
    {
      "inputs": [
        {
          "internalType": "address payable",
          "name": "withdrawAddress",
          "type": "address"
        }
      ],
      "name": "withdrawStake",
      "outputs": [],
      "stateMutability": "nonpayable",
      "type": "function"
    },
    {
      "inputs": [
        {
          "internalType": "address payable",
          "name": "withdrawAddress",
          "type": "address"
        },
        {
          "internalType": "uint256",
          "name": "amount",
          "type": "uint256"
        }
      ],
      "name": "withdrawTo",
      "outputs": [],
      "stateMutability": "nonpayable",
      "type": "function"
    },
    {
      "inputs": [
        {
          "internalType": "contract IERC20Metadata",
          "name": "token",
          "type": "address"
        },
        {
          "internalType": "address",
          "name": "target",
          "type": "address"
        },
        {
          "internalType": "uint256",
          "name": "amount",
          "type": "uint256"
        }
      ],
      "name": "withdrawTokensTo",
      "outputs": [],
      "stateMutability": "nonpayable",
      "type": "function"
    }
  ],
  "bytecode": "0x60a06040523480156200001157600080fd5b5060405162001fcc38038062001fcc8339810160408190526200003491620000c8565b8162000040336200005f565b6001600160a01b031660805262000057816200005f565b505062000107565b600080546001600160a01b038381166001600160a01b0319831681178455604051919092169283917f8be0079c531659141344cd1fd0a4f28419497f9722a3daafe3b4186f6b6457e09190a35050565b6001600160a01b0381168114620000c557600080fd5b50565b60008060408385031215620000dc57600080fd5b8251620000e981620000af565b6020840151909250620000fc81620000af565b809150509250929050565b608051611e7862000154600039600081816102170152818161037501528181610425015281816106f00152818161079d01528181610814015281816109660152610b340152611e786000f3fe60806040526004361061010e5760003560e01c8063b5766ebc116100a5578063c399ec8811610074578063d0e30db011610059578063d0e30db0146102e3578063f2fde38b146102eb578063f465c77e1461030b57600080fd5b8063c399ec88146102ae578063cc9c837c146102c357600080fd5b8063b5766ebc14610239578063b99152d014610259578063bb9fe6bf14610279578063c23a5cea1461028e57600080fd5b80638da5cb5b116100e15780638da5cb5b1461018657806394d4ad60146101b8578063a9a23409146101e5578063b0d691fe1461020557600080fd5b80630396cb6014610113578063205c287814610128578063715018a614610148578063796d43711461015d575b600080fd5b61012661012136600461160c565b610339565b005b34801561013457600080fd5b50610126610143366004611647565b6103de565b34801561015457600080fd5b50610126610469565b34801561016957600080fd5b506101736188b881565b6040519081526020015b60405180910390f35b34801561019257600080fd5b506000546001600160a01b03165b6040516001600160a01b03909116815260200161017d565b3480156101c457600080fd5b506101d86101d33660046116b5565b61047d565b60405161017d9190611787565b3480156101f157600080fd5b506101266102003660046117fb565b610606565b34801561021157600080fd5b506101a07f000000000000000000000000000000000000000000000000000000000000000081565b34801561024557600080fd5b5061017361025436600461193c565b610620565b34801561026557600080fd5b50610173610274366004611a2a565b61067b565b34801561028557600080fd5b506101266106e6565b34801561029a57600080fd5b506101266102a9366004611a2a565b61075d565b3480156102ba57600080fd5b506101736107fc565b3480156102cf57600080fd5b506101266102de366004611a47565b61088c565b610126610938565b3480156102f757600080fd5b50610126610306366004611a2a565b6109b3565b34801561031757600080fd5b5061032b610326366004611a88565b610a43565b60405161017d929190611ad6565b610341610a67565b6040517f0396cb6000000000000000000000000000000000000000000000000000000000815263ffffffff821660048201527f00000000000000000000000000000000000000000000000000000000000000006001600160a01b031690630396cb609034906024016000604051808303818588803b1580156103c257600080fd5b505af11580156103d6573d6000803e3d6000fd5b505050505050565b6103e6610a67565b6040517f205c28780000000000000000000000000000000000000000000000000000000081526001600160a01b038381166004830152602482018390527f0000000000000000000000000000000000000000000000000000000000000000169063205c287890604401600060405180830381600087803b1580156103c257600080fd5b610471610a67565b61047b6000610ac1565b565b6104bf6040805160c08101909152600080825260208201908152602001600065ffffffffffff1681526020016000815260200160008152602001606081525090565b60006104cf602860148587611af8565b6104d891611b22565b60601c905060006104ed602960288688611af8565b6104f691611b57565b60f81c600281111561050a5761050a6116f7565b9050600061051c602f60298789611af8565b61052591611b9d565b60d01c9050600061053a604f602f888a611af8565b61054391611be3565b90506000610555606f604f898b611af8565b61055e91611be3565b9050600061056f88606f818c611af8565b8080601f016020809104026020016040519081016040528093929190818152602001838380828437600092019190915250506040805160c081019091526001600160a01b038a168152929350506020820190508660028111156105d4576105d46116f7565b81526020018565ffffffffffff1681526020018481526020018381526020018281525096505050505050505b92915050565b61060e610b29565b61061a84848484610ba1565b50505050565b600061062b83610cfd565b46308460000151856020015186604001518760600151886080015160405160200161065d989796959493929190611c01565b60405160208183030381529060405280519060200120905092915050565b6040516370a0823160e01b81523060048201526000906001600160a01b038316906370a0823190602401602060405180830381865afa1580156106c2573d6000803e3d6000fd5b505050506040513d601f19601f820116820180604052508101906106009190611c5b565b6106ee610a67565b7f00000000000000000000000000000000000000000000000000000000000000006001600160a01b031663bb9fe6bf6040518163ffffffff1660e01b8152600401600060405180830381600087803b15801561074957600080fd5b505af115801561061a573d6000803e3d6000fd5b610765610a67565b6040517fc23a5cea0000000000000000000000000000000000000000000000000000000081526001600160a01b0382811660048301527f0000000000000000000000000000000000000000000000000000000000000000169063c23a5cea90602401600060405180830381600087803b1580156107e157600080fd5b505af11580156107f5573d6000803e3d6000fd5b5050505050565b6040516370a0823160e01b81523060048201526000907f00000000000000000000000000000000000000000000000000000000000000006001600160a01b0316906370a0823190602401602060405180830381865afa158015610863573d6000803e3d6000fd5b505050506040513d601f19601f820116820180604052508101906108879190611c5b565b905090565b3361089f6000546001600160a01b031690565b6001600160a01b03161461091f5760405162461bcd60e51b8152602060048201526024808201527f435030303a206f6e6c79206f776e65722063616e20776974686472617720746f60448201527f6b656e730000000000000000000000000000000000000000000000000000000060648201526084015b60405180910390fd5b6109336001600160a01b0384168383610dda565b505050565b6040517fb760faf90000000000000000000000000000000000000000000000000000000081523060048201527f00000000000000000000000000000000000000000000000000000000000000006001600160a01b03169063b760faf99034906024016000604051808303818588803b1580156107e157600080fd5b6109bb610a67565b6001600160a01b038116610a375760405162461bcd60e51b815260206004820152602660248201527f4f776e61626c653a206e6577206f776e657220697320746865207a65726f206160448201527f64647265737300000000000000000000000000000000000000000000000000006064820152608401610916565b610a4081610ac1565b50565b60606000610a4f610b29565b610a5a858585610e83565b915091505b935093915050565b6000546001600160a01b0316331461047b5760405162461bcd60e51b815260206004820181905260248201527f4f776e61626c653a2063616c6c6572206973206e6f7420746865206f776e65726044820152606401610916565b600080546001600160a01b038381167fffffffffffffffffffffffff0000000000000000000000000000000000000000831681178455604051919092169283917f8be0079c531659141344cd1fd0a4f28419497f9722a3daafe3b4186f6b6457e09190a35050565b336001600160a01b037f0000000000000000000000000000000000000000000000000000000000000000161461047b5760405162461bcd60e51b815260206004820152601560248201527f53656e646572206e6f7420456e747279506f696e7400000000000000000000006044820152606401610916565b6000808080808080610bb5898b018b611c74565b959c50939a5091985096509450925090506002856002811115610bda57610bda6116f7565b1415610bec575050505050505061061a565b600081831415610bfd575081610c13565b610c1083610c0b4885611cf8565b611048565b90505b6000670de0b6b3a764000085610c2b846188b8611d10565b610c35908d611cf8565b610c3f9190611d10565b610c499190611d2f565b90506000876002811115610c5f57610c5f6116f7565b1415610c7257610c6f8682611cf8565b90505b60028d6002811115610c8657610c866116f7565b14610cee57610ca06001600160a01b0389168a3084611060565b876001600160a01b0316896001600160a01b03167f135a0b11dc7f4fcd72d5628775b1296884b9c7205df0c5dc100ef6b3880f5fa183604051610ce591815260200190565b60405180910390a35b50505050505050505050505050565b6000610d0c6020830183611a2a565b6020830135610d1e6040850185611d51565b604051610d2c929190611d98565b604051908190039020610d426060860186611d51565b604051610d50929190611d98565b604080519182900382206001600160a01b03909516602083015281019290925260608201526080808201929092529083013560a08083019190915283013560c08083019190915283013560e0808301919091528301356101008083019190915283013561012082015261014001604051602081830303815290604052805190602001209050919050565b6040516001600160a01b0383166024820152604481018290526109339084907fa9059cbb00000000000000000000000000000000000000000000000000000000906064015b60408051601f198184030181529190526020810180517bffffffffffffffffffffffffffffffffffffffffffffffffffffffff167fffffffff00000000000000000000000000000000000000000000000000000000909316929092179091526110b1565b6060600080610e996101d3610120880188611d51565b90508060a001515160401480610eb457508060a00151516041145b610f265760405162461bcd60e51b815260206004820152603260248201527f435030313a20696e76616c6964207369676e6174757265206c656e677468206960448201527f6e207061796d6173746572416e644461746100000000000000000000000000006064820152608401610916565b6000610f68610f358884610620565b7f19457468657265756d205369676e6564204d6573736167653a0a3332000000006000908152601c91909152603c902090565b9050610f818260a001518261119990919063ffffffff16565b6001600160a01b0316610f9c6000546001600160a01b031690565b6001600160a01b031614610fd757610fbb6001836040015160006111bd565b6040518060200160405280600081525090935093505050610a5f565b60008735905060008184600001518560200151866060015187608001518d60e001358e61010001356040516020016110159796959493929190611da8565b6040516020818303038152906040529050806110386000866040015160006111bd565b9550955050505050935093915050565b60008183106110575781611059565b825b9392505050565b6040516001600160a01b038085166024830152831660448201526064810182905261061a9085907f23b872dd0000000000000000000000000000000000000000000000000000000090608401610e1f565b6000611106826040518060400160405280602081526020017f5361666545524332303a206c6f772d6c6576656c2063616c6c206661696c6564815250856001600160a01b03166111f59092919063ffffffff16565b90508051600014806111275750808060200190518101906111279190611df1565b6109335760405162461bcd60e51b815260206004820152602a60248201527f5361666545524332303a204552433230206f7065726174696f6e20646964206e60448201527f6f742073756363656564000000000000000000000000000000000000000000006064820152608401610916565b60008060006111a8858561120c565b915091506111b581611252565b509392505050565b600060d08265ffffffffffff16901b60a08465ffffffffffff16901b856111e55760006111e8565b60015b60ff161717949350505050565b606061120484846000856113bb565b949350505050565b6000808251604114156112435760208301516040840151606085015160001a611237878285856114ad565b9450945050505061124b565b506000905060025b9250929050565b6000816004811115611266576112666116f7565b141561126f5750565b6001816004811115611283576112836116f7565b14156112d15760405162461bcd60e51b815260206004820152601860248201527f45434453413a20696e76616c6964207369676e617475726500000000000000006044820152606401610916565b60028160048111156112e5576112e56116f7565b14156113335760405162461bcd60e51b815260206004820152601f60248201527f45434453413a20696e76616c6964207369676e6174757265206c656e677468006044820152606401610916565b6003816004811115611347576113476116f7565b1415610a405760405162461bcd60e51b815260206004820152602260248201527f45434453413a20696e76616c6964207369676e6174757265202773272076616c60448201527f75650000000000000000000000000000000000000000000000000000000000006064820152608401610916565b6060824710156114335760405162461bcd60e51b815260206004820152602660248201527f416464726573733a20696e73756666696369656e742062616c616e636520666f60448201527f722063616c6c00000000000000000000000000000000000000000000000000006064820152608401610916565b600080866001600160a01b0316858760405161144f9190611e13565b60006040518083038185875af1925050503d806000811461148c576040519150601f19603f3d011682016040523d82523d6000602084013e611491565b606091505b50915091506114a287838387611571565b979650505050505050565b6000807f7fffffffffffffffffffffffffffffff5d576e7357a4501ddfe92f46681b20a08311156114e45750600090506003611568565b6040805160008082526020820180845289905260ff881692820192909252606081018690526080810185905260019060a0016020604051602081039080840390855afa158015611538573d6000803e3d6000fd5b5050604051601f1901519150506001600160a01b03811661156157600060019250925050611568565b9150600090505b94509492505050565b606083156115dd5782516115d6576001600160a01b0385163b6115d65760405162461bcd60e51b815260206004820152601d60248201527f416464726573733a2063616c6c20746f206e6f6e2d636f6e74726163740000006044820152606401610916565b5081611204565b61120483838151156115f25781518083602001fd5b8060405162461bcd60e51b81526004016109169190611e2f565b60006020828403121561161e57600080fd5b813563ffffffff8116811461105957600080fd5b6001600160a01b0381168114610a4057600080fd5b6000806040838503121561165a57600080fd5b823561166581611632565b946020939093013593505050565b60008083601f84011261168557600080fd5b50813567ffffffffffffffff81111561169d57600080fd5b60208301915083602082850101111561124b57600080fd5b600080602083850312156116c857600080fd5b823567ffffffffffffffff8111156116df57600080fd5b6116eb85828601611673565b90969095509350505050565b634e487b7160e01b600052602160045260246000fd5b6003811061172b57634e487b7160e01b600052602160045260246000fd5b9052565b60005b8381101561174a578181015183820152602001611732565b8381111561061a5750506000910152565b6000815180845261177381602086016020860161172f565b601f01601f19169290920160200192915050565b602081526001600160a01b038251166020820152600060208301516117af604084018261170d565b5065ffffffffffff604084015116606083015260608301516080830152608083015160a083015260a083015160c08084015261120460e084018261175b565b60038110610a4057600080fd5b6000806000806060858703121561181157600080fd5b843561181c816117ee565b9350602085013567ffffffffffffffff81111561183857600080fd5b61184487828801611673565b9598909750949560400135949350505050565b6000610160828403121561186a57600080fd5b50919050565b634e487b7160e01b600052604160045260246000fd5b60405160c0810167ffffffffffffffff811182821017156118a9576118a9611870565b60405290565b600082601f8301126118c057600080fd5b813567ffffffffffffffff808211156118db576118db611870565b604051601f8301601f19908116603f0116810190828211818310171561190357611903611870565b8160405283815286602085880101111561191c57600080fd5b836020870160208301376000602085830101528094505050505092915050565b6000806040838503121561194f57600080fd5b823567ffffffffffffffff8082111561196757600080fd5b61197386838701611857565b9350602085013591508082111561198957600080fd5b9084019060c0828703121561199d57600080fd5b6119a5611886565b82356119b081611632565b815260208301356119c0816117ee565b6020820152604083013565ffffffffffff811681146119de57600080fd5b80604083015250606083013560608201526080830135608082015260a083013582811115611a0b57600080fd5b611a17888286016118af565b60a0830152508093505050509250929050565b600060208284031215611a3c57600080fd5b813561105981611632565b600080600060608486031215611a5c57600080fd5b8335611a6781611632565b92506020840135611a7781611632565b929592945050506040919091013590565b600080600060608486031215611a9d57600080fd5b833567ffffffffffffffff811115611ab457600080fd5b611ac086828701611857565b9660208601359650604090950135949350505050565b604081526000611ae9604083018561175b565b90508260208301529392505050565b60008085851115611b0857600080fd5b83861115611b1557600080fd5b5050820193919092039150565b6bffffffffffffffffffffffff198135818116916014851015611b4f5780818660140360031b1b83161692505b505092915050565b7fff000000000000000000000000000000000000000000000000000000000000008135818116916001851015611b4f5760019490940360031b84901b1690921692915050565b7fffffffffffff00000000000000000000000000000000000000000000000000008135818116916006851015611b4f5760069490940360031b84901b1690921692915050565b8035602083101561060057600019602084900360031b1b1692915050565b888152602081018890526001600160a01b038781166040830152861660608201526101008101611c34608083018761170d565b65ffffffffffff851660a08301528360c08301528260e08301529998505050505050505050565b600060208284031215611c6d57600080fd5b5051919050565b600080600080600080600060e0888a031215611c8f57600080fd5b8735611c9a81611632565b96506020880135611caa81611632565b95506040880135611cba816117ee565b969995985095966060810135965060808101359560a0820135955060c0909101359350915050565b634e487b7160e01b600052601160045260246000fd5b60008219821115611d0b57611d0b611ce2565b500190565b6000816000190483118215151615611d2a57611d2a611ce2565b500290565b600082611d4c57634e487b7160e01b600052601260045260246000fd5b500490565b6000808335601e19843603018112611d6857600080fd5b83018035915067ffffffffffffffff821115611d8357600080fd5b60200191503681900382131561124b57600080fd5b8183823760009101908152919050565b6001600160a01b0388811682528716602082015260e08101611dcd604083018861170d565b8560608301528460808301528360a08301528260c083015298975050505050505050565b600060208284031215611e0357600080fd5b8151801515811461105957600080fd5b60008251611e2581846020870161172f565b9190910192915050565b602081526000611059602083018461175b56fea2646970667358221220874711d220207b455246727114749aef35adc8b8e6a1339bf2a056232624188a64736f6c634300080c0033",
  "linkReferences": {},
  "deployedLinkReferences": {}
}